:020000040800F2
:1000000080040020010100084D1400084514000878
:1000100049140008490100085D15000800000000AF
:100020000000000000000000000000005115000862
:100030004D0100080000000051140008551500088B
:100040001B0100081B0100081B0100081B01000820
:100050001B0100081B010008510100081B010008DA
:100060001B0100081B0100081B0100081B01000800
:100070001B0100081B0100081B0100081B010008F0
:100080001B0100081B0100081B0100081B010008E0
:100090001B0100081B0100081B0100081B010008D0
:1000A0001B0100081B0100081B0100081B010008C0
:1000B0001B0100081B0100081B0100081B010008B0
:1000C0001B0100081B0100081B0100085514000853
:1000D0001B0100081B0100081B0100081B01000890
:1000E0001B0100081B0100081B010008DFF80CD0F1
:1000F00000F018F80048004761150008800400204F
:100100000648804706480047FEE7FEE7FEE7FEE7B1
:10011000FEE7FEE7FEE7FEE7FEE7FEE7591500080B
:10012000ED000008064C074D06E0E06840F00103D2
:1001300094E8070098471034AC42F6D3FFF7DAFF93
:100140004019000860190008FEE700007047000031
:1001500080B5012000F076F840F22000C2F20000E5
:100160000178B1FA81F14909017080BD80B590F83C
:100170002110022924D10268116821F00E011160BA
:100180002F211368C4F202018A4240F20401C4F232
:10019000020123F00103136016DD3023C4F20203D1
:1001A0009A421DD04423C4F202039A421CD0582321
:1001B000C4F202039A421DD14FF4803322E000BF03
:1001C00004218163012080BD0823C4F202039A4206
:1001D0000ED01C23C4F202039A420BD1102311E06B
:1001E0004FF480730EE000BF4FF480530AE000BF6D
:1001F000012307E001F1680C4FF08073624508BFEE
:100200004FF480130B60416B4FF48072028401B194
:100210008847002080BD0000B0B5044600F02EF9EC
:10022000054640F21000C2F200000078611C18BFC1
:10023000044400BF00F022F9401BA042FAD3B0BD35
:100240007047000040F21441C4F201010A68024202
:1002500014BF08607047FFF7F3BF00002DE9F04FAF
:1002600082B041F20042C4F201020E6804239042BF
:1002700008BF0323002E009300F0F68040F20C4EDE
:100280004FF6FF7CC4F2010E00220124C1F2100CD3
:100290004FF0000A4FF0000943E000BF012502F0D3
:1002A0000C040F27A7402BEA070705FA04F43C4388
:1002B00043F82640D1F804B040F20045C4F20105ED
:1002C0005FEACB332B6854BF23EA080343EA0803F1
:1002D0002B606B685FEA8B3454BF23EA080343EA60
:1002E00008036B605FEACB24AB6854BF23EA0803C2
:1002F00043EA08035FEA8B24AB60DEF800304FF07E
:10030000010454BF23EA080343EA0803CEF800308F
:100310000E680AF1010A36FA0AF302F1040200F04B
:10032000A38004FA0AF816EA080FF1D04B68634577
:1003300012DC122B56D8DFE803F0350B4549555532
:1003400055555555555555555555554D510000BFA9
:10035000D1F80C9046E000BF4FF6FF77C1F22107BD
:10036000BB420FDC0027C1F21107BB421AD00027A5
:10037000C1F21207BB4215D00027C1F22107BB42D0
:1003800010D02FE00027C1F22207BB420AD000277D
:10039000C1F23107BB4205D00027C1F23207BB4290
:1003A00020D100BF8B684BB1012B14BFC0F8148063
:1003B000C0F810804FF0080914E000BF4FF00409A6
:1003C00010E000BFCB6803F108090BE04FF0000913
:1003D00008E000BFCB6803F1040903E0CB6803F138
:1003E0000C0900BF13460546BAF1080F24BF203B95
:1003F00004352E680F279F40BE4309FA03F33343A9
:100400002B60CB79DB067FF583AF41F21804C4F291
:10041000020423684FEA9A0643F00103236023682D
:1004200040F6000403F001030193019B40F20043F6
:10043000C4F20103A3F57E7353F826B0C4F201049D
:10044000A0420FD040F60044C4F20104A0423FF4A1
:1004500025AF41F20004C4F20104009DA04208BF90
:1004600002251CE700251AE702B0BDE8F08F000066
:10047000002A08BF090401617047000040F27C00B7
:10048000C2F200000068704740F2100040F27C01A8
:10049000C2F20000C2F2000100780A68104408604D
:1004A0007047000080B542F20000C4F2020001680B
:1004B00041F010010160032000F08AF8002000F0F4
:1004C00005F800F027F8002080BD000070B540F26C
:1004D0001006C2F2000640F218013278C2F20001A2
:1004E0004FF47A730968B3FBF2F20446B1FBF2F100
:1004F000084600F091FF0F2C4FF0010508D838B9DD
:100500004FF0FF3021460022002500F035F87460DE
:10051000284670BD82B041F21800C4F202000168A2
:10052000022241F001010160016801F00101019125
:100530000199416841F080514160406800F080506D
:10054000009000980420C4F20100016862F31A616F
:10055000016002B070470000002848BF704700F0FB
:100560001F01012202FA01F14EF200124009CEF2FF
:10057000000242F82010704710B54EF60C5CCEF227
:10058000000CDCF80030C3F3022E8EF00704042CBC
:1005900028BF0424BEF103034FF0FF3E0EFA04F41B
:1005A00038BF0023A14399400EFA03F39A43114345
:1005B00000F00F02043A624409010C3200F160437A
:1005C000B0F1FF3FC8BF03F56442117010BD0000D9
:1005D0004EF60C51CEF200010A684FF6FF031A40A6
:1005E00060F30A2242F0806040F0FD7008607047BE
:1005F0002DE9F04381B0002800F0858042F2000828
:10060000C4F202080446D8F800000D4600F00700C6
:1006100088420CD2D8F8000020F007002843C8F820
:100620000000D8F8000000F00700A8426BD1206855
:1006300041F204098107C4F2020917D5410705D523
:10064000D9F8001041F4E061C9F80010010705D5A0
:10065000D9F8001041F46051C9F80010D9F8001021
:10066000A26821F0F0011143C9F80010C00741D180
:10067000D8F8000000F00700A8420CD9D8F8000014
:1006800020F007002843C8F80000D8F8000000F068
:100690000700A84237D12068410707D5D9F80010D4
:1006A000E26821F4E0611143C9F80010000708D5A1
:1006B000D9F80000216920F4605040EAC100C9F86F
:1006C0000000D9F8002002F00C00082841F20020B8
:1006D000C0F27A0050D141F63013C2F38341C0F624
:1006E0000003595CD2033BD440F60010C0F23D0039
:1006F000484341E0606802280AD001282AD159F80D
:10070000041C890308D4012001B0BDE8F08300BFB8
:1007100059F8041C8901F6D5D9F8001021F003011D
:100720000843C9F80000FFF7A9FE064641F28837E2
:10073000D9F80000616800F00C00B0EB810F97D091
:10074000FFF79CFE801BB842F2D9032001B0BDE840
:10075000F08300BF59F8041C8907D4D5DCE700BF3B
:10076000D9F8002041F61E13C2F34042C0F6000340
:100770009A5C4843B0FBF2F0D9F8001041F6201221
:10078000C1F30311C0F60002515C40F2180220FAD6
:1007900001F140F21400C2F200000068C2F200024F
:1007A0001160FFF793FE002001B0BDE8F083000068
:1007B0002DE9F04182B0002868D00446007841F26B
:1007C0000006C007C4F2020625D0706800F00C00D5
:1007D00004281BD0706800F00C00082802D1706853
:1007E000C00313D46068002800F06881B0F5A02F22
:1007F00000F07C81B0F5803F00F07C81306820F40F
:1008000080303060306820F4802076E130688003EA
:1008100001D56068D0B32078800718D5706810F0D3
:100820000C0F07D0706800F00C0008286ED17068BB
:10083000C0036BD43068800702D52069012825D118
:100840003068616920F0F80040EAC100306020782B
:1008500000071FD42078400732D4E56995B170684D
:1008600000F00C00082840F08F80012D0ED0706839
:10087000216A00F480328A4208D1616A00F4701063
:10088000884203D1002002B0BDE8F081012002B00F
:10089000BDE8F081A069002862D00020C4F24220A7
:1008A0000121C0F88014FFF7E9FD0546706A800752
:1008B00000F18C80FFF7E2FD401B0228F6D92AE107
:1008C000F06910F0805808D1F06940F08050F06174
:1008D000F06900F080500090009847F20007C4F2E1
:1008E00000073868C00529D4386840F48070386043
:1008F000FFF7C4FD054600BF3868C0051ED4FFF7EA
:10090000BDFD401B6428F7D905E100BF2069002820
:1009100040F20000C4F2422000F082800121016018
:10092000FFF7ACFD054600BF306880073FF588AF94
:10093000FFF7A4FD401B0228F6D9ECE0E068002890
:1009400000F08080052800F09780012800F0988052
:10095000306A20F001003062306A20F0040092E03A
:100960000020C4F242200021C0F88014FFF786FD69
:10097000054600BF706A80077FF56CAFFFF77EFD0C
:10098000401B0228F6D9C6E00027C4F24227002007
:100990003866FFF773FD022D05460BD130688001E4
:1009A00040F1BE80FFF76AFD401B02284FF00300B4
:1009B000F4D968E7306880017FF564AFFFF75EFD2A
:1009C000401B02284FF00300F4D95CE740F2180006
:1009D000C2F20000006844F6D351C1F26201A0FBEC
:1009E0000101480A019000BF00BF0198411E002884
:1009F00001913FF42FAF00BF0198411E00280191E3
:100A00003FF428AF00BF0198411E002801913FF438
:100A100021AF00BF0198411E00280191E4D119E7E0
:100A200000210160FFF72AFD054600BF30688007FE
:100A30007FF50DAFFFF722FD401B02284FF00300AA
:100A4000F4D920E7306A20F001003062306A20F0EB
:100A500004003062FFF712FD054641F2883700BFFF
:100A6000306A800720D5FFF709FD401BB8424FF0E0
:100A70000300F5D907E700BF306A40F00400306298
:100A8000306A40F001003062FFF7F8FC054641F2A1
:100A9000883700BF306A800706D4FFF7EFFC401BA1
:100AA000B842F7D937E000BFB8F1000F7FF4D5AEF8
:100AB000F06920F08050F061CFE600BF306820F48C
:100AC00080303060306820F480203060FFF7D6FC42
:100AD000054600BF306880037FF59DAEFFF7CEFC72
:100AE000401B64284FF00300F4D9CCE6306840F492
:100AF00080203060306840F480303060FFF7BEFC0A
:100B0000054600BF306880033FF585AEFFF7B6FCB1
:100B1000401B6428F6D9032002B0BDE8F08100BF75
:100B2000206AB0F5803F05D17168A26821F40031D8
:100B3000114371607168626A21F4741110430843B3
:100B4000706001203866FFF799FC04463068800128
:100B50003FF598AEFFF792FC001B02284FF0030010
:100B6000F4D990E670470000B0B584B00446006840
:100B70004168826812F0400305D112F0010518BFE8
:100B800011F0400512D1950708D511F0800505D068
:100B9000616C204604B0BDE8B040084712F0600F19
:100BA00018BF11F0200507D104B0B0BD216C20465C
:100BB00004B0BDE8B0400847BBB194F85130032BF6
:100BC00008D100210291C1680291806802900298C8
:100BD00004B0B0BD636D43F0040363650023039369
:100BE000C368039383680393039B12F020020CD025
:100BF000626D42F0010262650022019282680192F8
:100C0000026822F040020260019A626D002ACBD095
:100C10004268890722F0E00242604FF0010284F846
:100C200051201FD0416841F2614521F0030141602C
:100C3000E06CC0F6000538B14563FFF797FA18B1CC
:100C4000606D40F040006065A06C0028ACD045634A
:100C5000FFF78CFA0028A7D0606D40F04000606577
:100C600004B0B0BD204604B0BDE8B040FFF77ABF85
:100C700070B538B10446406A30B10020206104F1FB
:100C8000140007E0012070BD6068B0F5827F03D0DA
:100C900004F11C00002101600026A66294F85100B6
:100CA00020B9204684F8506000F038F8022084F81B
:100CB000510094E8071001F48271036802F40442C1
:100CC00023F040030360236911440CF400621144D3
:100CD00003F002026369114403F00102A369E569AC
:100CE000114403F40072114405F03802256A1144DE
:100CF00005F08002A56A114305F40052114301601A
:100D0000042101EA13414160C16921F40061C1611C
:100D10000120666584F85100304670BD70B586B01C
:100D200040F60004C4F20104006804F520510026D6
:100D30008842049602D006B070BD00BF41F2180090
:100D4000C4F20200016802AD41F480510160016803
:100D500001F4805101910199016841F004010160A1
:100D60000068294600F0040001900198A02002903C
:100D700002200390032005902046FFF76FFA4020E1
:100D8000CDE90206204629460496FFF767FA23209C
:100D900000210022FFF7F0FB2320FFF7DDFB06B068
:100DA00070BD00002DE9F04381B0044640681D4647
:100DB0001746B0F5827F0E4602D1A068002867D0A2
:100DC00094F85000012803D1022001B0BDE8F0835F
:100DD0004FF0010984F85090FFF750FB94F8511040
:100DE000012953D18046002E4FF0010018BF002F7B
:100DF00000F0C7800420002184F851006165A663DB
:100E0000A787E7872163A186E186A2682068B2F5FB
:100E1000004F2164616449D00168490651D5E168F9
:100E2000002955D0E18F002900F08480691C1AD078
:100E30008168C90706D1FFF721FBA0EB0800A84293
:100E400008D3A7E0C068A16B21F8020BA163E08F73
:100E50000138E087E08F00286CD020688168C907DE
:100E6000E9D0EFE720688168C90703D1FFF706FBE7
:100E700008E000BFC068A16B21F8020BA163E08FFE
:100E80000138E087E08F0028ECD153E0022078E0C1
:100E9000042084F851002046314632463B460095F6
:100EA00000F068F901B0BDE8F08300BF016821F0EF
:100EB00040010160016821F4804101600168490638
:100EC000ADD4016841F040010160E1680029A9D179
:100ED000E18F79B3691C1AD08168C90706D1FFF781
:100EE000CDFAA0EB0800A84209D355E0007BA16B26
:100EF0000870A06B0130A063E08F0138E087E08FBD
:100F0000C0B120688168C907E9D0EFE7206881682F
:100F1000C90703D1FFF7B2FA09E000BF007BA16B5C
:100F20000870A06B0130A063E08F0138E087E08F8C
:100F30000028EBD16068B0F5827F11D1A068B0F5D0
:100F4000004F02D0B0F5806F0AD12168B0F5806FF4
:100F50000A6822F040020A6002D12046012101E025
:100F6000204680212A46434600F080FA28B1606D71
:100F700040F02000606520206065606D002818BF8B
:100F80000120002184F8519084F8501001B0BDE890
:100F9000F08300BF0320F4E70320F2E72DE9F043DC
:100FA00081B0044690F85000012803D1022001B01E
:100FB000BDE8F0834FF001091D4616460F4684F840
:100FC0005090FFF75BFA94F85110012972D18046D6
:100FD000002F4FF0010018BF002E00F0C280032048
:100FE000002184F8510061652763A686E686A16327
:100FF000A187E187A0682164B0F5004F2068616493
:1010000007D1016821F040010160016841F480418D
:1010100001600168490603D4016841F040010160A4
:101020006168731EE268B1FA81F1B3FA83F349098A
:101030005B09B2F5006F41EA03013DD131B137F8E8
:10104000021BC1602763E18E0139E186E18E002930
:101050006CD0691C1BD000BF8168890706D4FFF7DC
:101060000DFAA0EB0800A84208D348E0216B31F844
:10107000022BC2602163E08E0138E086E08E0028FA
:1010800054D0206881688907E9D5EFE72068816836
:10109000890703D4FFF7F2F908E000BF216B31F8AC
:1010A000022BC2602163E08E0138E086E08E0028CA
:1010B000ECD13BE0022054E039B139780173206B68
:1010C00001302063E08E0138E086E08E70B3681C4A
:1010D0000BD11BE0216B09780173206B0130206379
:1010E000E08E0138E086E08E00B3206881688907D1
:1010F000F0D4FFF7C3F9A0EB0800A842F3D3032014
:101100002FE000BFFFF7BAF9E08E78B12068816860
:101110008907F7D5216B09780173206B01302063B3
:10112000E08E0138E086E08E0028EFD12046802155
:101130002A46434600F09AF928B1606D40F020003D
:10114000606520206065A06838B9002000902068A4
:10115000C1680091806800900098606D002818BFF9
:101160000120002184F8519084F8501001B0BDE8AE
:10117000F08300002DE9F04381B0044690F8500060
:10118000012803D1022001B0BDE8F08301201E46F2
:1011900015460F4684F85000FFF770F994F8511087
:1011A000814601290CD06068B0F5827F40F0A080B4
:1011B000A06800284FF0020008BF042940F0998081
:1011C000002F4FF0010018BF002D00F09280002E7C
:1011D00000F08F8094F85100002104281CBF0520E6
:1011E00084F851006165A563E687A6872763E686D4
:1011F0002068A686216461640168490603D40168F9
:1012000041F0400101606168731EE268B1FA81F14A
:10121000B3FA83F3DDF8208049095B09B2F5006F6A
:1012200041EA03016ED131B137F8021BC160276377
:10123000E08E0138E086012518F1010031D101E08E
:10124000FFF71CF9E08E18B9E08F002800F0C2808B
:101250002068816889070CD5E18E51B1012D08D134
:10126000216B002531F8022BC2602163E18E013928
:10127000E1868168C907E3D0E18F0029E0D0C0682A
:10128000A16B012521F8020BA163E08F0138E087F3
:10129000D6E700BFFFF7F2F8A0EB0900404580F069
:1012A000A980E08E18B9E08F002800F093802068B4
:1012B000816889070CD5E18E51B1012D08D1216BD0
:1012C000002531F8022BC2602163E18E0139E186ED
:1012D0008168C907DED0E18F0029DBD0C068A16B2F
:1012E000012521F8020BA163E08F0138E087D1E7E7
:1012F0000220012184F85110002184F8501001B01F
:10130000BDE8F08339B139780173206B0130206377
:10131000E08E0138E086012518F1010032D101E0AC
:10132000FFF7ACF8E08E10B9E08F002852D02068AB
:10133000816889070ED5E18E61B1012D0AD1216B3B
:10134000002509780173216B206801312163E18E4A
:101350000139E1868168C907E2D0E18F0029DFD039
:10136000C068A16B01250870A06B0130A063E08FFD
:101370000138E087D4E700BFFFF780F8A0EB090051
:10138000404539D2E08E08B9E08F18B320688168F3
:1013900089070ED5E18E61B1012D0AD1216B00259F
:1013A00009780173216B206801312163E18E0139D5
:1013B000E1868168C907DFD0E18F0029DCD0C068F1
:1013C000A16B01250870A06B0130A063E08F01388C
:1013D000E087D1E72046802142464B4600F046F8A0
:1013E00060B1606D40F020006065202060650120E4
:1013F0007FE700BF03207CE703207AE7A06800288E
:101400004FF000007FF475AF00902168CA68009229
:101410008968009100996CE7411E0020B0EB116FC4
:101420001CBF012070474EF21002CEF20002516044
:101430004EF62351CEF20001F0230B70072190608D
:1014400011607047FEE70000FEE70000FEE70000C5
:101450007047000040F22400C2F20000FFF784BB96
:10146000406A0021C187C186FFF77CBB2DE9F041AE
:1014700082B01E4690460D460446FEF7FFFF301A26
:1014800000EB0807FEF7FAFF40F21801C2F2000174
:101490000968C1F3CB317943019121688A682A40F8
:1014A000AA4227D1064618F101001FD0FEF7E6FF39
:1014B000801BB84222D2019801990028A1F10101B4
:1014C00001912168896808BF074601EA0500A84222
:1014D000ECD00FE088682840A8420BD188682840EB
:1014E000A84207D188682840A84203D188682840CC
:1014F000A842EFD0002002B0BDE8F081D4E900019D
:101500004268B1F5827F22F0E00242600AD1A16810
:10151000B1F5004F02D0B1F5806F03D1016821F021
:1015200040010160A16AB1F5005F07D1016821F4B3
:1015300000510160016841F400510160012084F80C
:101540005100002084F85000032002B0BDE8F08173
:1015500070470000FEF798BF70470000FEE70000EC
:1015600090B0FEF79FFF00240120CDE90B44CDE9A8
:10157000094406900A904FF4E0104FF480310225A0
:101580000F9006A8CDE90714CDE90D51FFF710F92A
:1015900020B1EFF3108072B6FEE700BF0F20CDE957
:1015A00001054FF48060CDE9040401A802210394F1
:1015B000FFF71EF820B1EFF3108072B6FEE700BF10
:1015C000002741F218000997C4F20200016840F6B2
:1015D000000441F0200101600168C4F2010401F03F
:1015E0002001019101990168012241F0040101608B
:1015F00001684FF0100901F004010191019901689F
:101600004FF0010841F0080101600068102100F06E
:101610000800019001982046FEF72AFF04F5806536
:101620002846402101224FF0400AFEF721FF00200A
:10163000C1F2110006AECDE9070720463146CDF8CC
:101640001880FEF70BFE0320099020463146CDE9B5
:1016500006980897FEF702FE0220099028463146B8
:10166000CDE906A80897FEF7F9FD06200021002223
:10167000FEF782FF0620FEF76FFF40F22008C2F25D
:10168000000804F52051404640F8041F4FF48271D1
:101690004FF400721823C0E901170A21C0E903774B
:1016A000C0E90572C0E90737C0E90977C162FFF7F1
:1016B000DFFA28B1EFF3108072B600BFFEE700BF7B
:1016C000204610210022FEF7D3FE0120FEF7A4FDE4
:1016D00040F2000708F10406C2F20007B91D3046C7
:1016E00003220023FFF75AFCD8F80400816809069A
:1016F00009D58168090644BF81685FEA016102D5A6
:1017000081680906F2D4204610210122FEF7B0FEBE
:101710000120FEF781FD204610210022FEF7A8FEE1
:101720000120FEF779FD08F1010A304651460322F7
:101730000023FFF737FBD8F804008168090609D5B4
:101740008168090644BF81685FEA016102D581684A
:101750000906F2D4204610210122FEF789FE01205D
:10176000FEF75AFD204610210022FEF781FE0120DF
:10177000FEF752FDF91C304603220023FFF70EFC52
:10178000D8F804008168090609D58168090644BFB4
:1017900081685FEA016102D581680906F2D42046BA
:1017A00010210122FEF764FE0120FEF735FD2046E0
:1017B00010210022FEF75CFE0120FEF72DFD3046D1
:1017C000514603220023FFF7EDFAD8F804008168A0
:1017D000090609D58168090644BF81685FEA01618D
:1017E00002D581680906F2D4204610210122FEF7B5
:1017F0003FFE0120FEF710FD204610210022FEF7DB
:1018000037FE0120FEF708FD40F20009C2F2000990
:101810003046494603220023FFF7C0FBD8F80400F6
:101820008168090609D58168090644BF81685FEAB5
:10183000016102D581680906F2D4204610210122F7
:10184000FEF716FE0120FEF7E7FC204610210022DD
:10185000FEF70EFE0120FEF7DFFC30465146032264
:101860000023FFF79FFAD8F804008168090609D51C
:101870008168090644BF81685FEA016102D5816819
:101880000906F2D4204610210122FEF7F1FD0120C5
:10189000FEF7C2FC09F10C07464616F8045B204629
:1018A00010210022FEF7E4FD0120FEF7B5FC3946C9
:1018B000304603220023002D08BF09F10901FFF77C
:1018C0006DFB204610210122FEF7D2FD0120FEF71C
:1018D000A3FC204610210022FEF7CAFD0120FEF7DE
:1018E0009BFC3046514603220023FFF75BFA20465B
:1018F00010210122FEF7BCFD0120FEF78DFCCBE795
:1019000002E008C8121F08C1002AFAD170477047C8
:10191000002001E001C1121F002AFBD17047010223
:10192000000000000000000001020304060708098F
:1019300002030405060708090A0B0C0D0E0F101010
:1019400060190008000000202000000000190008B5
:101950008019000820000020600400001019000811
:1019600001000009FFF8030AA410FFFF10000000A7
:1019700001000000100000000024F400000000003E
:04000005080000ED02
:00000001FF
